{"contracts/Attack.sol":{"Attack":{"abi":[{"inputs":[],"name":"checkthehash","outputs":[{"internalType":"bool","name":"","type":"bool"}],"stateMutability":"view","type":"function"},{"inputs":[],"name":"getHash","outputs":[],"stateMutability":"nonpayable","type":"function"},{"inputs":[],"name":"hash","outputs":[{"internalType":"bytes32","name":"","type":"bytes32"}],"stateMutability":"view","type":"function"}],"evm":{"bytecode":{"linkReferences":{},"object":"608060405273f8e9327e38ceb39b1ec3d26f5fad09e426888e666000806101000a81548173ffffffffffffffffffffffffffffffffffffffff021916908373ffffffffffffffffffffffffffffffffffffffff1602179055507f448e5df1a6908f8d17fae934d9ae3f0c63545235f8ff393c6777194cae28147860001b6001557f98290e06bee00d6b6f34095a54c4087297e3285d457b140128c1c2f3b62a41bd60001b6002553480156100b257600080fd5b5061035e806100c26000396000f3fe608060405234801561001057600080fd5b50600436106100415760003560e01c806309bd5a60146100465780636f7ff14014610064578063d13319c414610082575b600080fd5b61004e61008c565b60405161005b91906101f7565b60405180910390f35b61006c610092565b604051610079919061022d565b60405180910390f35b61008a610136565b005b60035481565b60008060009054906101000a900473ffffffffffffffffffffffffffffffffffffffff1673ffffffffffffffffffffffffffffffffffffffff166335c577086003546040518263ffffffff1660e01b81526004016100f091906101f7565b602060405180830381865afa15801561010d573d6000803e3d6000fd5b505050506040513d601f19601f820116820180604052508101906101319190610279565b905090565b60008054906101000a900473ffffffffffffffffffffffffffffffffffffffff1673ffffffffffffffffffffffffffffffffffffffff1663412f9cac6001546002546040518363ffffffff1660e01b81526004016101959291906102a6565b602060405180830381865afa1580156101b2573d6000803e3d6000fd5b505050506040513d601f19601f820116820180604052508101906101d691906102fb565b600381905550565b6000819050919050565b6101f1816101de565b82525050565b600060208201905061020c60008301846101e8565b92915050565b60008115159050919050565b61022781610212565b82525050565b6000602082019050610242600083018461021e565b92915050565b600080fd5b61025681610212565b811461026157600080fd5b50565b6000815190506102738161024d565b92915050565b60006020828403121561028f5761028e610248565b5b600061029d84828501610264565b91505092915050565b60006040820190506102bb60008301856101e8565b6102c860208301846101e8565b9392505050565b6102d8816101de565b81146102e357600080fd5b50565b6000815190506102f5816102cf565b92915050565b60006020828403121561031157610310610248565b5b600061031f848285016102e6565b9150509291505056fea2646970667358221220a3b21e1e309320e3e3c43bac18f9146ea1955765e38dcca750e7e1c45097269164736f6c63430008110033","opcodes":"PUSH1 0x80 PUSH1 0x40 MSTORE PUSH20 0xF8E9327E38CEB39B1EC3D26F5FAD09E426888E66 PUSH1 0x0 DUP1 PUSH2 0x100 EXP DUP2 SLOAD DUP2 PUSH20 0xFFFFFFFFFFFFFFFFFFFFFFFFFFFFFFFFFFFFFFFF MUL NOT AND SWAP1 DUP4 PUSH20 0xFFFFFFFFFFFFFFFFFFFFFFFFFFFFFFFFFFFFFFFF AND MUL OR SWAP1 SSTORE POP PUSH32 0x448E5DF1A6908F8D17FAE934D9AE3F0C63545235F8FF393C6777194CAE281478 PUSH1 0x0 SHL PUSH1 0x1 SSTORE PUSH32 0x98290E06BEE00D6B6F34095A54C4087297E3285D457B140128C1C2F3B62A41BD PUSH1 0x0 SHL PUSH1 0x2 SSTORE CALLVALUE DUP1 ISZERO PUSH2 0xB2 JUMPI PUSH1 0x0 DUP1 REVERT JUMPDEST POP PUSH2 0x35E DUP1 PUSH2 0xC2 PUSH1 0x0 CODECOPY PUSH1 0x0 RETURN INVALID PUSH1 0x80 PUSH1 0x40 MSTORE CALLVALUE DUP1 ISZERO PUSH2 0x10 JUMPI PUSH1 0x0 DUP1 REVERT JUMPDEST POP PUSH1 0x4 CALLDATASIZE LT PUSH2 0x41 JUMPI PUSH1 0x0 CALLDATALOAD PUSH1 0xE0 SHR DUP1 PUSH4 0x9BD5A60 EQ PUSH2 0x46 JUMPI DUP1 PUSH4 0x6F7FF140 EQ PUSH2 0x64 JUMPI DUP1 PUSH4 0xD13319C4 EQ PUSH2 0x82 JUMPI JUMPDEST PUSH1 0x0 DUP1 REVERT JUMPDEST PUSH2 0x4E PUSH2 0x8C JUMP JUMPDEST PUSH1 0x40 MLOAD PUSH2 0x5B SWAP2 SWAP1 PUSH2 0x1F7 JUMP JUMPDEST PUSH1 0x40 MLOAD DUP1 SWAP2 SUB SWAP1 RETURN JUMPDEST PUSH2 0x6C PUSH2 0x92 JUMP JUMPDEST PUSH1 0x40 MLOAD PUSH2 0x79 SWAP2 SWAP1 PUSH2 0x22D JUMP JUMPDEST PUSH1 0x40 MLOAD DUP1 SWAP2 SUB SWAP1 RETURN JUMPDEST PUSH2 0x8A PUSH2 0x136 JUMP JUMPDEST STOP JUMPDEST PUSH1 0x3 SLOAD DUP2 JUMP JUMPDEST PUSH1 0x0 DUP1 PUSH1 0x0 SWAP1 SLOAD SWAP1 PUSH2 0x100 EXP SWAP1 DIV PUSH20 0xFFFFFFFFFFFFFFFFFFFFFFFFFFFFFFFFFFFFFFFF AND PUSH20 0xFFFFFFFFFFFFFFFFFFFFFFFFFFFFFFFFFFFFFFFF AND PUSH4 0x35C57708 PUSH1 0x3 SLOAD PUSH1 0x40 MLOAD DUP3 PUSH4 0xFFFFFFFF AND PUSH1 0xE0 SHL DUP2 MSTORE PUSH1 0x4 ADD PUSH2 0xF0 SWAP2 SWAP1 PUSH2 0x1F7 JUMP JUMPDEST PUSH1 0x20 PUSH1 0x40 MLOAD DUP1 DUP4 SUB DUP2 DUP7 GAS STATICCALL ISZERO DUP1 ISZERO PUSH2 0x10D JUMPI RETURNDATASIZE PUSH1 0x0 DUP1 RETURNDATACOPY RETURNDATASIZE PUSH1 0x0 REVERT JUMPDEST POP POP POP POP PUSH1 0x40 MLOAD RETURNDATASIZE PUSH1 0x1F NOT PUSH1 0x1F DUP3 ADD AND DUP3 ADD DUP1 PUSH1 0x40 MSTORE POP DUP2 ADD SWAP1 PUSH2 0x131 SWAP2 SWAP1 PUSH2 0x279 JUMP JUMPDEST SWAP1 POP SWAP1 JUMP JUMPDEST PUSH1 0x0 DUP1 SLOAD SWAP1 PUSH2 0x100 EXP SWAP1 DIV PUSH20 0xFFFFFFFFFFFFFFFFFFFFFFFFFFFFFFFFFFFFFFFF AND PUSH20 0xFFFFFFFFFFFFFFFFFFFFFFFFFFFFFFFFFFFFFFFF AND PUSH4 0x412F9CAC PUSH1 0x1 SLOAD PUSH1 0x2 SLOAD PUSH1 0x40 MLOAD DUP4 PUSH4 0xFFFFFFFF AND PUSH1 0xE0 SHL DUP2 MSTORE PUSH1 0x4 ADD PUSH2 0x195 SWAP3 SWAP2 SWAP1 PUSH2 0x2A6 JUMP JUMPDEST PUSH1 0x20 PUSH1 0x40 MLOAD DUP1 DUP4 SUB DUP2 DUP7 GAS STATICCALL ISZERO DUP1 ISZERO PUSH2 0x1B2 JUMPI RETURNDATASIZE PUSH1 0x0 DUP1 RETURNDATACOPY RETURNDATASIZE PUSH1 0x0 REVERT JUMPDEST POP POP POP POP PUSH1 0x40 MLOAD RETURNDATASIZE PUSH1 0x1F NOT PUSH1 0x1F DUP3 ADD AND DUP3 ADD DUP1 PUSH1 0x40 MSTORE POP DUP2 ADD SWAP1 PUSH2 0x1D6 SWAP2 SWAP1 PUSH2 0x2FB JUMP JUMPDEST PUSH1 0x3 DUP2 SWAP1 SSTORE POP JUMP JUMPDEST PUSH1 0x0 DUP2 SWAP1 POP SWAP2 SWAP1 POP JUMP JUMPDEST PUSH2 0x1F1 DUP2 PUSH2 0x1DE JUMP JUMPDEST DUP3 MSTORE POP POP JUMP JUMPDEST PUSH1 0x0 PUSH1 0x20 DUP3 ADD SWAP1 POP PUSH2 0x20C PUSH1 0x0 DUP4 ADD DUP5 PUSH2 0x1E8 JUMP JUMPDEST SWAP3 SWAP2 POP POP JUMP JUMPDEST PUSH1 0x0 DUP2 ISZERO ISZERO SWAP1 POP SWAP2 SWAP1 POP JUMP JUMPDEST PUSH2 0x227 DUP2 PUSH2 0x212 JUMP JUMPDEST DUP3 MSTORE POP POP JUMP JUMPDEST PUSH1 0x0 PUSH1 0x20 DUP3 ADD SWAP1 POP PUSH2 0x242 PUSH1 0x0 DUP4 ADD DUP5 PUSH2 0x21E JUMP JUMPDEST SWAP3 SWAP2 POP POP JUMP JUMPDEST PUSH1 0x0 DUP1 REVERT JUMPDEST PUSH2 0x256 DUP2 PUSH2 0x212 JUMP JUMPDEST DUP2 EQ PUSH2 0x261 JUMPI PUSH1 0x0 DUP1 REVERT JUMPDEST POP JUMP JUMPDEST PUSH1 0x0 DUP2 MLOAD SWAP1 POP PUSH2 0x273 DUP2 PUSH2 0x24D JUMP JUMPDEST SWAP3 SWAP2 POP POP JUMP JUMPDEST PUSH1 0x0 PUSH1 0x20 DUP3 DUP5 SUB SLT ISZERO PUSH2 0x28F JUMPI PUSH2 0x28E PUSH2 0x248 JUMP JUMPDEST JUMPDEST PUSH1 0x0 PUSH2 0x29D DUP5 DUP3 DUP6 ADD PUSH2 0x264 JUMP JUMPDEST SWAP2 POP POP SWAP3 SWAP2 POP POP JUMP JUMPDEST PUSH1 0x0 PUSH1 0x40 DUP3 ADD SWAP1 POP PUSH2 0x2BB PUSH1 0x0 DUP4 ADD DUP6 PUSH2 0x1E8 JUMP JUMPDEST PUSH2 0x2C8 PUSH1 0x20 DUP4 ADD DUP5 PUSH2 0x1E8 JUMP JUMPDEST SWAP4 SWAP3 POP POP POP JUMP JUMPDEST PUSH2 0x2D8 DUP2 PUSH2 0x1DE JUMP JUMPDEST DUP2 EQ PUSH2 0x2E3 JUMPI PUSH1 0x0 DUP1 REVERT JUMPDEST POP JUMP JUMPDEST PUSH1 0x0 DUP2 MLOAD SWAP1 POP PUSH2 0x2F5 DUP2 PUSH2 0x2CF JUMP JUMPDEST SWAP3 SWAP2 POP POP JUMP JUMPDEST PUSH1 0x0 PUSH1 0x20 DUP3 DUP5 SUB SLT ISZERO PUSH2 0x311 JUMPI PUSH2 0x310 PUSH2 0x248 JUMP JUMPDEST JUMPDEST PUSH1 0x0 PUSH2 0x31F DUP5 DUP3 DUP6 ADD PUSH2 0x2E6 JUMP JUMPDEST SWAP2 POP POP SWAP3 SWAP2 POP POP JUMP INVALID LOG2 PUSH5 0x6970667358 0x22 SLT KECCAK256 LOG3 0xB2 0x1E 0x1E ADDRESS SWAP4 KECCAK256 0xE3 0xE3 0xC4 EXTCODESIZE 0xAC XOR 0xF9 EQ PUSH15 0xA1955765E38DCCA750E7E1C4509726 SWAP2 PUSH5 0x736F6C6343 STOP ADDMOD GT STOP CALLER "},"methodIdentifiers":{"checkthehash()":"6f7ff140","getHash()":"d13319c4","hash()":"09bd5a60"}}}}}