{
  "_format": "hh-sol-artifact-1",
  "contractName": "Attack",
  "sourceName": "contracts/Attack.sol",
  "abi": [
    {
      "inputs": [],
      "name": "checkthehash",
      "outputs": [
        {
          "internalType": "bool",
          "name": "",
          "type": "bool"
        }
      ],
      "stateMutability": "view",
      "type": "function"
    },
    {
      "inputs": [],
      "name": "getHash",
      "outputs": [],
      "stateMutability": "nonpayable",
      "type": "function"
    },
    {
      "inputs": [],
      "name": "hash",
      "outputs": [
        {
          "internalType": "bytes32",
          "name": "",
          "type": "bytes32"
        }
      ],
      "stateMutability": "view",
      "type": "function"
    }
  ],
  "bytecode": "0x608060405273f8e9327e38ceb39b1ec3d26f5fad09e426888e666000806101000a81548173ffffffffffffffffffffffffffffffffffffffff021916908373ffffffffffffffffffffffffffffffffffffffff1602179055507f448e5df1a6908f8d17fae934d9ae3f0c63545235f8ff393c6777194cae28147860001b6001557f98290e06bee00d6b6f34095a54c4087297e3285d457b140128c1c2f3b62a41bd60001b6002553480156100b257600080fd5b5061035e806100c26000396000f3fe608060405234801561001057600080fd5b50600436106100415760003560e01c806309bd5a60146100465780636f7ff14014610064578063d13319c414610082575b600080fd5b61004e61008c565b60405161005b91906101f7565b60405180910390f35b61006c610092565b604051610079919061022d565b60405180910390f35b61008a610136565b005b60035481565b60008060009054906101000a900473ffffffffffffffffffffffffffffffffffffffff1673ffffffffffffffffffffffffffffffffffffffff166335c577086003546040518263ffffffff1660e01b81526004016100f091906101f7565b602060405180830381865afa15801561010d573d6000803e3d6000fd5b505050506040513d601f19601f820116820180604052508101906101319190610279565b905090565b60008054906101000a900473ffffffffffffffffffffffffffffffffffffffff1673ffffffffffffffffffffffffffffffffffffffff1663412f9cac6001546002546040518363ffffffff1660e01b81526004016101959291906102a6565b602060405180830381865afa1580156101b2573d6000803e3d6000fd5b505050506040513d601f19601f820116820180604052508101906101d691906102fb565b600381905550565b6000819050919050565b6101f1816101de565b82525050565b600060208201905061020c60008301846101e8565b92915050565b60008115159050919050565b61022781610212565b82525050565b6000602082019050610242600083018461021e565b92915050565b600080fd5b61025681610212565b811461026157600080fd5b50565b6000815190506102738161024d565b92915050565b60006020828403121561028f5761028e610248565b5b600061029d84828501610264565b91505092915050565b60006040820190506102bb60008301856101e8565b6102c860208301846101e8565b9392505050565b6102d8816101de565b81146102e357600080fd5b50565b6000815190506102f5816102cf565b92915050565b60006020828403121561031157610310610248565b5b600061031f848285016102e6565b9150509291505056fea2646970667358221220a3b21e1e309320e3e3c43bac18f9146ea1955765e38dcca750e7e1c45097269164736f6c63430008110033",
  "linkReferences": {},
  "deployedLinkReferences": {}
}